:020000040800F2
:1000000000200020F1050008DD050008DF050008DC
:1000100000000000000000000000000000000000E0
:10002000000000000000000000000000E1050008E2
:100030000000000000000000E3050008E5050008DE
:1000400041060008000000004106000841060008C3
:100050004106000841060008410600084106000864
:1000600000000000410600084106000841060008A3
:100070004106000841060008410600080000000093
:1000800041060008000000000000000041060008D2
:100090000000000041060008410600084106000873
:1000A0004106000841060008410600084106000814
:0800B0004106000800000000F9
:1000B80010B5064C2378002B07D1054B002B02D036
:1000C800044800E000BF0123237010BD0C0000208D
:1000D80000000000F0150008044B10B5002B03D0F9
:1000E8000349044800E000BF10BDC04600000000FE
:1000F80010000020F015000802B4714649084900B4
:10010800095C49008E4402BC7047C046002243087F
:100118008B4274D303098B425FD3030A8B4244D3C7
:10012800030B8B4228D3030C8B420DD3FF22090209
:1001380012BA030C8B4202D31212090265D0030BC8
:100148008B4219D300E0090AC30B8B4201D3CB03BE
:10015800C01A5241830B8B4201D38B03C01A524100
:10016800430B8B4201D34B03C01A5241030B8B4202
:1001780001D30B03C01A5241C30A8B4201D3CB02ED
:10018800C01A5241830A8B4201D38B02C01A5241D2
:10019800430A8B4201D34B02C01A5241030A8B42D5
:1001A80001D30B02C01A5241CDD2C3098B4201D3ED
:1001B800CB01C01A524183098B4201D38B01C01A6B
:1001C800524143098B4201D34B01C01A52410309E2
:1001D8008B4201D30B01C01A5241C3088B4201D391
:1001E800CB00C01A524183088B4201D38B00C01A3E
:1001F800524143088B4201D34B00C01A5241411A65
:1002080000D20146524110467047FFE701B5002071
:1002180000F0F0F802BDC0460029F7D076E7704735
:1002280003460B437FD4002243088B4274D303094F
:100238008B425FD3030A8B4244D3030B8B4228D3F0
:10024800030C8B420DD3FF22090212BA030C8B4216
:1002580002D31212090265D0030B8B4219D300E0B6
:10026800090AC30B8B4201D3CB03C01A5241830B3B
:100278008B4201D38B03C01A5241430B8B4201D3EB
:100288004B03C01A5241030B8B4201D30B03C01A14
:100298005241C30A8B4201D3CB02C01A5241830A8E
:1002A8008B4201D38B02C01A5241430A8B4201D3BD
:1002B8004B02C01A5241030A8B4201D30B02C01AE7
:1002C8005241CDD2C3098B4201D3CB01C01A52414E
:1002D80083098B4201D38B01C01A524143098B42D7
:1002E80001D34B01C01A524103098B4201D30B01C0
:1002F800C01A5241C3088B4201D3CB00C01A5241E5
:1003080083088B4201D38B00C01A524143088B42A9
:1003180001D34B00C01A5241411A00D20146524142
:10032800104670475DE0CA0F00D04942031000D361
:100338004042534000229C4603098B422DD3030AB6
:100348008B4212D3FC22890112BA030A8B420CD3C6
:10035800890192118B4208D3890192118B4204D3EF
:1003680089013AD0921100E08909C3098B4201D36F
:10037800CB01C01A524183098B4201D38B01C01AA9
:10038800524143098B4201D34B01C01A5241030920
:100398008B4201D30B01C01A5241C3088B4201D3CF
:1003A800CB00C01A524183088B4201D38B00C01A7C
:1003B8005241D9D243088B4201D34B00C01A524153
:1003C800411A00D20146634652415B10104601D3E0
:1003D8004042002B00D54942704763465B1000D36A
:1003E800404201B5002000F005F802BD0029F8D010
:1003F80016E770477047C04610B592B03422002106
:1004080005A801F0C5F80021102201A801F0C0F8E4
:100418008020800000F056FA80235B0008930023B8
:1004280009930E9308330F9380239B021093802324
:10043800022440229B0505A805940A920C940D9469
:10044800119300F06BFA011E01D072B6FEE7072384
:100458000193C02304901B0101A80294039300F0A8
:10046800BDFC002801D072B6FEE712B010BD000036
:1004780010B5102488B000F009F9FFF7BDFF22007D
:10048800002104A801F084F80221A020214BC00516
:100498005A6B0A435A635A6B0A400192019A5A6B83
:1004A80001390A435A635B6B03940B40029303A917
:1004B800029B00F055F9184C184B0C222360962328
:1004C8009B01636000232000A360E36023616261F5
:1004D800A361E36123626362A36200F09DFF011ED2
:1004E80001D072B6FEE7200001F010F8011E01D01D
:1004F80072B6FEE7200001F029F8002801D072B694
:10050800FEE7200000F0E4FF002801D072B6FEE705
:10051800FEE7C046001002402800002000380140D5
:1005280072B6FEE701210A4B82B01A6C0A431A64BC
:100538001A6C0A4080210092009ADA6B49050A4336
:10054800DA63DB6B0B400193019B02B07047C04636
:100558000010024010B504008EB01422002103A838
:1005680001F016F81822002108A801F011F8164B1E
:1005780022689A4225D1012308A8089300F0ECFCD0
:10058800002801D0FFF7CCFF8021104BC9011A6C5D
:100598000F480A431A641A6C0A400192019A02220F
:1005A800596B114359635B6B03A913400293029B78
:1005B800C02303930023049205930693079300F046
:1005C800CFF80EB010BDC046003801400010024000
:1005D80000040050FEE7FEE77047704710B500F0D2
:1005E80069F810BD704700000D488546FFF7FAFF0F
:1005F8000C480D490D4A002302E0D458C450043376
:10060800C4188C42F9D30A4A0A4C002301E013604B
:100618000432A242FBD300F0C3FFFFF729FFFEE735
:1006280000200020000000200C0000209C1600087C
:100638000C000020C0000020FEE7000070B5104B41
:1006480005001978002901D1012070BDFA20800029
:10065800FFF75CFD0B4C01002068FFF757FD00F029
:1006680065F8041EF0D1032DEED802000120290000
:10067800404200F031F8044B20001D60E5E7C04619
:100688000400002000000020080000208023084A01
:100698005B00116810B50B4303201360FFF7CEFF12
:1006A800041E03D1FFF73EFF200010BD0124FBE725
:1006B80000200240034A044B11681B785B18136042
:1006C8007047C046BC00002004000020014B186899
:1006D8007047C046BC00002010B5FF2403220B0061
:1006E80021000240D20091409B012340C94393401E
:1006F80000280ADBC0240B4A800880008018A40068
:1007080002590A401343035110BD0F221040083804
:10071800054A800880008018C26911401943C161E8
:10072800F2E7C04600E100E000ED00E08022431E51
:100738005204012093420DD2C021074A0748536052
:10074800036A09061B021B0A0B43036200200723E6
:10075800906013607047C04610E000E000ED00E0D4
:100768000023F0B585B00A681400DC4001D105B05B
:10077800F0BD012514009D402C4000942A4200D170
:1007880091E04A685F0094460322644622400324AD
:10079800BC40E4430194541E012C2ED88668019C69
:1007A8002640CC68BC403443846044680126AC438E
:1007B80025006446240934409C402C434460C568A5
:1007C800019C25408C68BC402C43C460022A16D189
:1007D80007250F261D40AD00AE40DC08A400041913
:1007E8000294246A03962600039CA64334000E69EB
:1007F800AE402643029C266201E0032ADFD1BA40BC
:100808000468019D25402A43C02402606246A40270
:10081800224248D0254A03259C08A400A4180F2288
:100828001D40ED00AA40A027266EFF059643002232
:10083800B8420CD01E4F0132B84208D01D4F0132C9
:10084800B84204D01C4F0332B84200D1023AAA4041
:10085800674632432266154C009A2668009DD243AB
:100868003543FF0201D435001540674625606668A8
:10087800009D3543BF0201D43500154067466560C9
:100888000E4C009DE66F3543BF0301D4350015407B
:100898006746E5670A4C009EE56F2E43FF0301D4C7
:1008A80015402E00E66701335DE7C0460018024098
:1008B8000004005000080050000C005008180240C6
:1008C8000418024010B5114C1149236802000B406E
:1008D80003432360802300209B009A420ED10D4BD6
:1008E8000D49186806235843FFF710FC8022431C63
:1008F800D200616908001040114200D110BD002BE0
:1009080001D0013BF5E70320F8E7C046007000403E
:10091800FFF9FFFF0000002040420F00F0B504007F
:1009280085B0002802D1012005B0F0BD0368DB07BF
:1009380010D423689B075CD423681B0700D5C1E04B
:1009480023685B0700D5F2E0E369002B00D079E16A
:100958000020E9E73822AF4DAB681340EA68102B56
:1009680009D1D3439B0708D12B689B03E1D5636862
:10097800002BDED1D7E7082BF6D08022636852021D
:10098800934211D12A6813432B60FFF79FFE8027FB
:100998000600BF022B683B42CBD1FFF797FE801BB6
:1009A8006428F7D90320BFE7A021C9028B4208D1E8
:1009B80080232968DB020B432B602B681A432A60CB
:1009C800E3E72A6894490A402A602A6893490A405A
:1009D8002A60002BD9D1FFF779FE80270600BF02D5
:1009E8002B683B42A5D0FFF771FE801B6428F7D91E
:1009F800D8E73822874DAB681340EA68102B28D116
:100A080003210A40022A26D12A68520503D5E26842
:100A1800002A00D187E769686269814812020140AB
:100A28000A436A60002B0CD12B687E4A7E4913402A
:100A3800226913432B602B687C4A9B045B0FDA40C6
:100A48000A607B4B1868FFF7F9FD002800D173E7AF
:100A580069E7002BD8D0E368002B20D02B68714AB7
:100A6800802713402269FF0013432B6080232A68E4
:100A78005B0013432B60FFF729FE06002B683B42FF
:100A880007D06A68636966491B020A4013436B60B2
:100A980052E7FFF71BFE801B0228EFD982E72B687D
:100AA800644A802713402B60FFF710FE0600FF0002
:100AB8002B683B4200D13FE7FFF708FE801B022866
:100AC800F6D96FE73822534DAB681340182B08D17D
:100AD8002B6E9B0700D433E7A369002B00D02FE7C8
:100AE80021E7A2690123002A10D02A6E02271343A6
:100AF8002B66FFF7EBFD06002B6E3B4200D01FE78D
:100B0800FFF7E4FD801B0228F6D94BE72A6E02277F
:100B18009A432A66FFF7DAFD06002B6E3B4200D1A6
:100B28000EE7FFF7D3FD801B0228F6D93AE73822F3
:100B3800384DAB681340202B08D1EB6D9B0700D4D0
:100B480002E7A368002B00D0FEE6ECE68022002135
:100B5800EB6B52050091134208D1EB6B1343EB6327
:100B6800EB6B13400393039B012300938027324EC2
:100B78007F0033683B4215D0A368012B22D1EA6D70
:100B88001343EB65FFF7A2FD02270600EB6D3B421E
:100B980038D0009B012B00D0D6E6EB6B274A1340D8
:100BA800EB63D1E633683B433360FFF78FFD019079
:100BB80033683B42E0D1FFF789FD019BC01A022848
:100BC800F6D9EFE6EA6D052B05D1013B1343EB653A
:100BD800EA6D0123D4E701218A43EA65EA6D03310E
:100BE8008A43EA65002BCDD1FFF770FD0227060086
:100BF800EB6D3B42CDD0FFF769FD114B801B98424E
:100C0800F6D9CFE6FFF762FD0D4B801B9842BDD9A0
:100C1800C8E6C04600100240FFFFFEFFFFFFFBFFD3
:100C2800FF80FFFFFFC7FFFF000000200024F40043
:100C380008000020FFFEFFFF00700040FFFFFFEFED
:100C48008813000038213F4DAA680A40102A51D065
:100C58003D4A022B38D12B68802713402B60FFF7C1
:100C680035FD0600BF042B683B4227D1616A236A21
:100C7800EA680B43354980260A401343E26AB60402
:100C88001343226B1343A26A12021343EB608023BF
:100C98002A685B0413432B608023EA685B051343CF
:100CA800EB60FFF713FD04002B68334200D04FE6DA
:100CB800FFF70CFD001B0228F6D973E6FFF706FDC7
:100CC800801B0228CFD96DE62B68802613402B6045
:100CD800FFF7FCFC0400B6042B68334204D1EB6830
:100CE8001B4A1340EB6033E6FFF7F0FC001B0228B9
:100CF800F2D957E6012B00D115E60322E868216AEC
:100D080002408A4200D00EE67022616A02408A429E
:100D180000D008E6FE21A26AC901014012029142F0
:100D280000D000E6F822E16A920302408A4200D02D
:100D3800F9E5236B400F4007C01A431E9841C0B223
:100D4800F2E5C04600100240FFFFFFFE8C80C11F85
:100D5800FCFFFEEF382370B51D4CA2681A4205D17E
:100D680023681C489B045B0FD84070BDA2681A40DA
:100D7800082A27D0A2681A40102A17D1E368E16828
:100D8800DB43E5684906490F6F322D0A01311540EA
:100D98009B0709D11048FFF7B9F9E1686843490F83
:100DA8000131FFF7B3F9E0E70A48F4E7A2681A400F
:100DB800202A09D0A26800201340182BD5D1FA2088
:100DC800C001D2E70448D0E780200002CDE7C04642
:100DD800001002400024F40000127A00F7B5040065
:100DE8000D00002801D10120FEBD0727484E3368B9
:100DF8003B408B422AD3226893073BD4D20748D47E
:100E0800072733683B40AB420AD93368BB432B43BF
:100E18003360FFF75BFC019033683B40AB4268D11D
:100E280023683C4D5B076CD4FFF794FFAB683A49E5
:100E38001B051B0F9B005B581F210B40D840374AEE
:100E4800374B10601868FFF7F9FBCDE73368BB43F1
:100E58000B433360FFF73AFC019033683B40AB42E9
:100E6800C9D0FFF733FC019BC01A2E4B9842F4D926
:100E78000320B9E72749530704D5E0238868DB0135
:100E880003438B608B6828480340A06803438B604A
:100E9800B4E760681F4F032829D8FFF72DF920020F
:100EA8001C243B689B039ED50722BB6893430343DE
:100EB800BB60FFF70BFC01903823BA681A406368DF
:100EC800DB009A429CD0FFF701FC019BC01A154B2E
:100ED8009842F1D9CCE73B689B01E5D483E73B68AE
:100EE8005B05E1D47FE73B6E9B07DDD47BE7FB6DB9
:100EF800FAE7FFF7EBFB019BC01A0A4B98428BD924
:100F0800B6E7AB68094A1340E2681343AB608BE766
:100F180000200240001002402816000800000020AF
:100F28000800002088130000FFF0FFFFFF8FFFFF7D
:100F3800064B07499B68074A5B045B0F9B005B589D
:100F48001F2110680B40D8407047C046001002406F
:100F58000816000800000020F0B50368050085B0F9
:100F680000209B0351D58022484C5205E36B00902A
:100F7800134208D1E36B1343E363E36B134003931A
:100F8800039B012300938027414E7F0033683B4336
:100F98003360FFF79BFB019033683B4227D0E26D3B
:100FA800C02310009B0069693A4E18401A4217D0B6
:100FB800814215D08022E36DE06D19005202024390
:100FC800E265E26D344831400240E265E165DB07E5
:100FD80006D5FFF77BFB07000222E36D13424DD0D5
:100FE800E36D6A69334013430020E36506E0FFF7C9
:100FF8006DFB019BC01A0228CED90320009B012B50
:1010080003D1E36B254A1340E3632A68D30706D567
:1010180003241E494B6DA3436C6823434B65930619
:1010280006D51A491E4C4B6D2340AC6823434B65CB
:1010380053040FD515492C694B6D9B009B0823431E
:101048004B658023DB059C4204D18023CC685B027E
:101058002343CB6012050FD50C4A124C536DE96837
:1010680023400B4353658023DB01994204D180233D
:10107800D1685B020B43D36005B0F0BDFFF726FBD8
:10108800094BC01B9842A7D9B7E7C04600100240D9
:1010980000700040FFFCFFFFFFFFFEFFFFFFFFEFB8
:1010A800FFCFFFFFFF3FFFFF8813000070B504006C
:1010B8002569A168036829436569C26929431868D5
:1010C800494D114328400143196059684748256A2A
:1010D8000140E06801435960A16998682943444D7B
:1010E800284001430F209960D96A8143606A01430F
:1010F800D96240498B4215D103213F4B5B6D0B40B0
:10110800013B022B60D83D49C85C80231B029A42F0
:101118002FD1082856D8FEF7EFFF5B550E550B5513
:1011280055550F0036495B18591E8B411801ECE7DD
:10113800FFF710FE4EE0334A616A334B4900100056
:10114800C95AFEF7E3FF656840006B08C01829001C
:10115800FEF7DCFF02002D4B103A9A4232D80F23DB
:10116800020000079A4393B2400F22680343D360FA
:1011780032E0082826D8FEF7BFFF1A2505251F25C7
:10118800252522001F48626A1F4B5200D15AFEF7DC
:10119800BDFF65686B08C0182900FEF7B7FF02009D
:1011A8001A4B103A9A420DD82368D86014E0FFF71A
:1011B800BFFE002810D0E6E7FFF7CCFDF9E7802056
:1011C8000002E0E7012008E080231B029A42EED1EA
:1011D800FFF7AEFE021EAFD100200D4BA366002321
:1011E8006367A36770BDC046F369FFCFFFCFFFFFFA
:1011F800FFF4FF1100380140001002406816000893
:1012080000BCFFBF0024F4006C160008EFFF0000CC
:1012180001000100836A30B5DA0706D50168284C59
:101228004A682240C46A22434A609A0706D5016880
:10123800244C4A682240046B22434A605A0706D568
:101248000168214C4A682240446B22434A601A07CD
:1012580006D501681D4C4A682240846B22434A60C7
:10126800DA0606D501681A4C8A682240C46B224304
:101278008A609A0606D50168164C8A682240046C72
:1012880022438A605A0610D50168134D4A68446C97
:101298002A4022434A6080225203944205D14A6878
:1012A8000E4C2240846C22434A601B0606D5026815
:1012B8000B4953680B40C16C0B43536030BDC046AB
:1012C800FFFFFDFFFFFFFEFFFFFFFBFFFF7FFFFFAD
:1012D800FFEFFFFFFFDFFFFFFFFFEFFFFFFF9FFFB6
:1012E800FFFFF7FFF8B504000D0017001E00226885
:1012F800D3692B405B1B59424B41BB4201D00020B4
:1013080029E0069B0133F3D0FFF7E0F9069B801B29
:10131800984201D8002B1FD1EFF31080012282F3ED
:1013280010882168204D0B682B400B6080F31088D3
:10133800EFF3108082F3108821688B6893438B60E9
:1013480080F3108823001F3288331A605A60002304
:10135800032084342370F8BD23681A685207C6D561
:101368008022D96912011142C1D01A62EFF31080AC
:10137800012282F3108821680B4D0B682B400B600B
:1013880080F31088EFF3108082F3108821688B684F
:1013980093438B6080F310882200202388321360E7
:1013A80053609360D3E7C0465FFEFFFF030073B549
:1013B8000026040090331E60FFF788F923680500B3
:1013C8001B681B0719D423681B685B070AD5802193
:1013D800104B0022009320002B00C903FFF782FF67
:1013E800002815D122000020202388321360536082
:1013F800E0662067843420700BE08021054B3200C2
:101408000093890303002000FFF76CFF0028DAD05F
:10141800032076BDFFFFFF0170B5041E01D1012036
:1014280070BD050088352B68002B04D1020084327A
:101438001370FFF78FF82423012122682B601368AB
:1014480020008B431360FFF731FE0128E7D0A36A21
:10145800002B02D02000FFF7DDFE236807495A68F9
:1014680020000A402A215A609A688A439A60012219
:1014780019680A431A60FFF799FFD1E7FFB7FFFF22
:10148800F7B50700436E04006A37002B04D101202A
:10149800388068342080F7BD03680B4E9A689B68D3
:1014A8000A4D5B0FF05CE95CC0000192FEF7B8FEE4
:1014B800019B38801B015B0FF05CE95CC000FEF704
:1014C800AFFE80B2E5E7C0468C1600088416000817
:1014D80070B504008434227803000220012A11D058
:1014E8001D002422012688352A601A6811681068B0
:1014F800B043106004480140002058662023116062
:101508002B60207070BDC046FFFFFFDFF8B50500F7
:1015180084350B0029780222012915D00600012103
:101528000468883622323260276822688A4322603B
:10153800A168C900C9081943A160FFF7A1FF2023CA
:101548000022276033602A701000F8BDF8B5050046
:1015580084350A0029780223012915D006000121C3
:101568000468883622333360276823688B432360F6
:10157800A168064B19401143A160FFF781FF2023A2
:101588002760336000232B701800F8BDFFFFFFF1C0
:1015980003008218934200D1704719700133F9E7AC
:1015A80070B500260C4C0D4D641BA410A64209D141
:1015B800002600F019F80A4C0A4D641BA410A64234
:1015C80005D170BDB300EB5898470136EEE7B3007C
:1015D800EB5898470136F2E794160008941600086D
:1015E8009816000894160008F8B5C046F8BC08BC60
:1015F8009E467047F8B5C046F8BC08BC9E46704782
:1016080000000000000000000000000000000000D2
:1016180001000000020000000300000004000000B8
:1016280000000000000000000000000000000000B2
:1016380000000000000000000000000000000000A2
:101648000100000002000000030000000400000088
:101658000600000007000000080000000900000064
:1016680004020800010002000400060008000A0045
:101678000C00100020004000800000010804020453
:0C1688000801010101010103070100003D
:04169400E100000869
:04169800B90000088D
:0C169C000024F400010000000400000025
:04000005080005F1F9
:00000001FF
