:020000040800F2
:1000000000200020510A00081D0A00081F0A0008ED
:1000100000000000000000000000000000000000E0
:10002000000000000000000000000000210A00089D
:100030000000000000000000230A0008250A000854
:10004000A10A000800000000A10A0008A10A000897
:10005000A10A0008A10A0008A10A0008A10A0008D4
:10006000000000002D0A00083D0A0008A10A00084F
:10007000A10A0008A10A0008A10A00080000000067
:10008000A10A00080000000000000000A10A00080A
:1000900000000000A10A0008A10A0008A10A000847
:1000A000A10A0008A10A0008A10A0008A10A000884
:0800B000A10A00080000000095
:1000B80010B5064C2378002B07D1054B002B02D036
:1000C800044800E000BF0123237010BD1000002089
:1000D80000000000EC270008044B10B5002B03D0EB
:1000E8000349044800E000BF10BDC04600000000FE
:1000F80014000020EC27000802B4714649084900A2
:10010800095C49008E4402BC7047C046002243087F
:100118008B4274D303098B425FD3030A8B4244D3C7
:10012800030B8B4228D3030C8B420DD3FF22090209
:1001380012BA030C8B4202D31212090265D0030BC8
:100148008B4219D300E0090AC30B8B4201D3CB03BE
:10015800C01A5241830B8B4201D38B03C01A524100
:10016800430B8B4201D34B03C01A5241030B8B4202
:1001780001D30B03C01A5241C30A8B4201D3CB02ED
:10018800C01A5241830A8B4201D38B02C01A5241D2
:10019800430A8B4201D34B02C01A5241030A8B42D5
:1001A80001D30B02C01A5241CDD2C3098B4201D3ED
:1001B800CB01C01A524183098B4201D38B01C01A6B
:1001C800524143098B4201D34B01C01A52410309E2
:1001D8008B4201D30B01C01A5241C3088B4201D391
:1001E800CB00C01A524183088B4201D38B00C01A3E
:1001F800524143088B4201D34B00C01A5241411A65
:1002080000D20146524110467047FFE701B5002071
:1002180000F0F0F802BDC0460029F7D076E7704735
:1002280003460B437FD4002243088B4274D303094F
:100238008B425FD3030A8B4244D3030B8B4228D3F0
:10024800030C8B420DD3FF22090212BA030C8B4216
:1002580002D31212090265D0030B8B4219D300E0B6
:10026800090AC30B8B4201D3CB03C01A5241830B3B
:100278008B4201D38B03C01A5241430B8B4201D3EB
:100288004B03C01A5241030B8B4201D30B03C01A14
:100298005241C30A8B4201D3CB02C01A5241830A8E
:1002A8008B4201D38B02C01A5241430A8B4201D3BD
:1002B8004B02C01A5241030A8B4201D30B02C01AE7
:1002C8005241CDD2C3098B4201D3CB01C01A52414E
:1002D80083098B4201D38B01C01A524143098B42D7
:1002E80001D34B01C01A524103098B4201D30B01C0
:1002F800C01A5241C3088B4201D3CB00C01A5241E5
:1003080083088B4201D38B00C01A524143088B42A9
:1003180001D34B00C01A5241411A00D20146524142
:10032800104670475DE0CA0F00D04942031000D361
:100338004042534000229C4603098B422DD3030AB6
:100348008B4212D3FC22890112BA030A8B420CD3C6
:10035800890192118B4208D3890192118B4204D3EF
:1003680089013AD0921100E08909C3098B4201D36F
:10037800CB01C01A524183098B4201D38B01C01AA9
:10038800524143098B4201D34B01C01A5241030920
:100398008B4201D30B01C01A5241C3088B4201D3CF
:1003A800CB00C01A524183088B4201D38B00C01A7C
:1003B8005241D9D243088B4201D34B00C01A524153
:1003C800411A00D20146634652415B10104601D3E0
:1003D8004042002B00D54942704763465B1000D36A
:1003E800404201B5002000F005F802BD0029F8D010
:1003F80016E770477047C04630B593B034220021E5
:1004080005A801AC02F0C2F910220021200002F078
:10041800BDF98020800000F0D9FD80235B0008939F
:10042800002309930E9308330F9380239B021093A4
:100438008023022540229B0505A805950A920C9564
:100448000D95119300F0EEFD002801D072B6FEE77D
:100458000723A060E060290020000193656001F097
:1004680041F8002801D072B6FEE713B030BDA020D5
:1004780010B51021C00500F0A3FD10BD70470000A5
:10048800F0B500232925132685B002912349019050
:10049800039200220820019F801A074101242800A6
:1004A800274200D130000F000937B8540132082A1A
:1004B800F0D1073A0920029C801A0441012728003C
:1004C8003C4200D1300088540132092AF2D100227E
:1004D8000820039F801A074101242800274200D1E1
:1004E80030000F001137B854571C072A12D11800D2
:1004F800A824183080B218316400A0420CD10E2014
:1005080007491133088007499B180F7006490B806B
:1005180005B0F0BD3A00DBE70300BAE7240100208C
:100528007A0200207802002076020020F0B585B01B
:1005380002910821019000238C46012033241D25B7
:100548000392204A00216646019F761A3741260009
:10055800074200D12E00170009377E5401310829BF
:10056800F1D107390926029F761A3741260007423A
:1005780000D12E00565401310929F3D100216646D5
:10058800039F761A37412600074200D12E00170034
:1005980011377E544F1C072910D11E001836B6B2E9
:1005A8001832F02E0CD10A20074A11331080074A5E
:1005B8005B181770064A138005B0F0BD3900DEE7F6
:1005C8003300BFE7320000207A02002078020020C2
:1005D8007602002070B50D0016000400FFF750FFEA
:1005E800320029002000FFF7A1FFA923064C0021B3
:1005F8002000064A5B0001F073FDF223042120006D
:10060800034A01F06DFD70BDC803002024010020DD
:10061800320000201B490A68501E531C94280CD82D
:1006280019480278013A02701848027801320270BB
:100638000020174A10700B607047100097389428F4
:100648000BD80020104A107010480278013A027046
:100658000F48027801320270EDE72E3AFF3A942AE9
:100668000AD809480278013202700020074A10703F
:1006780007480278013AEEE7E12252009342DAD9BC
:100688000023D8E72C0000200000002031000020C3
:1006980030000020F0B5102593B000F027FAFFF7DE
:1006A800ABFE2A0000210CA802F070F802220126F5
:1006B800A020674C0BAF636B390013436363636B14
:1006C800C00513400293029B636B33436363636B00
:1006D8000B9533400393039B00F0C0FB0022A36BF0
:1006E80011003343A363A36B092033400193019B9B
:1006F80000F034FA092000F05BFA00220A20110009
:1007080000F02CFA0A2000F053FA524C524B0C22FB
:100718002360E1235B02636000232000A360E360A1
:1007280023616261A361E36123626362A36201F0F2
:1007380071FF011E01D072B6FEE7200001F0E4FF50
:10074800011E01D072B6FEE7200001F0FDFF00286F
:1007580001D072B6FEE7200001F0B8FF061E01D0F6
:1007680072B6FEE72A00010007A802F00FF80C2273
:10077800310004A802F00AF81C223100380002F007
:1007880005F8364D364B28002B604F236E60AE605F
:10079800EB602E61AE6101F0E7F9002801D072B676
:1007A800FEE7802328005B0107A9079301F0FEFA02
:1007B800002801D072B6FEE7280001F0FFF90028F2
:1007C80001D072B6FEE70490069004A9280001F053
:1007D8008BFC021E01D072B6FEE7602339000B9332
:1007E8007860B8603861280001F04EFA002801D01E
:1007F80072B6FEE714230422390028007B6001F05A
:1008080043FA002801D072B6FEE7280000F09CF8F1
:100818000A2000F091F9FFF72AFE002810D064237F
:1008280006221049200001F026FEFFF7F3FE0E4BCA
:100838001A780E4B19780E4B1878FFF7CBFEE7E7BE
:100848006423092220000B4901F015FEEFE7C0469A
:10085800001002407C02002000380140C80300203C
:100868000004004007280008300000203100002064
:10087800000000200428000872B6FEE701210A4B98
:1008880082B01A6C0A431A641A6C0A4080210092DA
:10089800009ADA6B49050A43DA63DB6B0B40019374
:1008A800019B02B07047C0460010024037B5204B8C
:1008B800026805009A423AD102211E4B1E4CDA6B9F
:1008C80020000A43DA63DB6B80220B400193019B13
:1008D8001A4B2261236020236360103BA36000232E
:1008E8009218E3606261A361E361236200F0C0F9DA
:1008F800002801D0FFF7C0FF114B6C62A562114CB4
:100908008022236021236360113BA36000232261BE
:1009180020009218E3606261A361E361236200F042
:10092800A7F9002801D0FFF7A7FFAC62A56237BD81
:1009380000040040001002406C0300200800024040
:100948001C0002401003002010B5040086B01422D9
:10095800002101A801F01AFF0C4B22689A4212D11B
:1009680001230B4AA020516BC00519435163526BF8
:1009780001A91A400092009AC0220192BE3A02923E
:10098800059300F06BFA06B010BDC04600040040A5
:100998000010024010B504008EB01422002103A8F4
:1009A80001F0F4FE1822002108A801F0EFFE164B12
:1009B80022689A4225D1012308A8089300F050FE26
:1009C800002801D0FFF758FF8021104BC9011A6C8D
:1009D8000F480A431A641A6C0A400192019A0222CB
:1009E800596B114359635B6B03A913400293029B34
:1009F800C02303930023049205930693079300F002
:100A08002DFA0EB010BDC04600380140001002405B
:100A180000040050FEE7FEE77047704710B500F08D
:100A280079F810BD10B5024800F0C4F910BDC046F1
:100A38006C03002010B5024800F0BCF910BDC04698
:100A480010030020704700000D488546FFF7FAFFA5
:100A58000C480D490D4A002302E0D458C450043311
:100A6800C4188C42F9D30A4A0A4C002301E01360E7
:100A78000432A242FBD301F091FEFFF70BFEFEE722
:100A8800002000200000002010000020A4280008FA
:100A98001000002018040020FEE7000070B5104B7D
:100AA80005001978002901D1012070BDFA208000C5
:100AB800FFF72CFB0B4C01002068FFF727FB00F029
:100AC80083F8041EF0D1032DEED80200012029007E
:100AD800404200F043F8044B20001D60E5E7C046A3
:100AE80008000020040000200C0000208023084A91
:100AF8005B00116810B50B4303201360FFF7CEFFAE
:100B0800041E03D1FFF7BAFE200010BD0124FBE745
:100B180000200240034A044B11681B785B181360DD
:100B28007047C0461404002008000020014B1868D4
:100B38007047C0461404002070B50400FFF7F6FFA4
:100B48000500631C02D0044B1B78E418FFF7EEFF86
:100B5800401BA042FAD370BD0800002010B5FF2446
:100B680003220B0021000240D20091409B01234048
:100B7800C943934000280ADBC0240B4A8008800040
:100B88008018A40002590A401343035110BD0F22D4
:100B980010400838054A800880008018C269114052
:100BA8001943C161F2E7C04600E100E000ED00E052
:100BB800002805DB1F2318401E3B8340014A1360B1
:100BC8007047C04600E100E08022431E5204012025
:100BD80093420DD2C021074A07485360036A0906A9
:100BE8001B021B0A0B43036200200723906013605B
:100BF8007047C04610E000E000ED00E0F0B5846CFE
:100C0800C56C6560046D002C02D0446D856D65600F
:100C18001C24056C084E25401B3CAC4077683C43BF
:100C28007460046863608368102B02D1A260E1607D
:100C3800F0BDA160E260FBE70000024010B50400CF
:100C4800036C094A9B089B189B00436400681421A5
:100C5800C0B20838FFF75AFA044BA3641F231840A0
:100C68001E3B8340E36410BD0082001080080240F0
:100C7800F8B504000120002C46D02568254B142126
:100C8800E818FFF743FA02238000A61D2064F377D3
:100C98002B68214AA76813402B60E36821693B430E
:100CA8000B4361692A680B43A16920000B43E16982
:100CB8000B43216A0B4313432B60FFF7BFFF8023CD
:100CC800DB019F4201D1002363603F236268616CAE
:100CD80013400B60E06CA16C013A4860032A14D8F9
:100CE8000E4A0F4899180122013B9A40A265130049
:100CF80000228900216560650A60436000200123A5
:100D0800E0630534F377E077F8BD00232365636576
:100D1800A365F3E7F8FFFDBF0F80FFFF3F820010D8
:100D280040090240F7B5451D0193EE7F04000220FB
:100D3800012E33D00138E877A71DFE7FB4466346FD
:100D4800F6B200960026834230D10130F877256844
:100D5800E6632868009B98432860019B2000FFF702
:100D68004DFF236BB3421AD00E232A6813432B601E
:100D7800636C1A68D20304D58022196852000A43AA
:100D88001A60236D002B04D08022196852000A4390
:100D98001A60012300202A6813432B60FEBD042239
:100DA8002B6893432B602A680A23DFE78023E363D9
:100DB800EE77F3E7F8B51C240427016C264A214096
:100DC8003C008C40166803681D6826420FD03D42DF
:100DD8000DD01968890602D41968B9431960536897
:100DE8001C43036B5460002B1BD0984719E0022763
:100DF8003C008C40264215D03D4213D01968890624
:100E080006D40A251968A94319600121831DD977D9
:100E180053681C4354600022431DDA77C36A934227
:100E2800E3D1F8BD082427008F403E42F9D025427F
:100E3800F7D00E251C68AC431C6001231D008D40B3
:100E48002900546821435160821DC363D37700226F
:100E5800431DDA77436BE2E7000002400023F0B558
:100E680085B00A681400DC4001D105B0F0BD012549
:100E780014009D402C4000942A4200D191E04A6819
:100E88005F0094460322644622400324BC40E443A6
:100E98000194541E012C2ED88668019C2640CC68EB
:100EA800BC403443846044680126AC432500644652
:100EB800240934409C402C434460C568019C25406B
:100EC8008C68BC402C43C460022A16D107250F2623
:100ED8001D40AD00AE40DC08A40004190294246A49
:100EE80003962600039CA64334000E69AE402643B1
:100EF800029C266201E0032ADFD1BA400468019D02
:100F080025402A43C02402606246A402224248D0F7
:100F1800254A03259C08A400A4180F221D40ED00B3
:100F2800AA40A027266EFF0596430022B8420CD09F
:100F38001E4F0132B84208D01D4F0132B84204D0CA
:100F48001C4F0332B84200D1023AAA4067463243E6
:100F58002266154C009A2668009DD2433543FF024D
:100F680001D435001540674625606668009D354305
:100F7800BF0201D435001540674665600E4C009DE0
:100F8800E66F3543BF0301D4350015406746E56772
:100F98000A4C009EE56F2E43FF0301D415402E0036
:100FA800E66701335DE7C0460018024000040050C0
:100FB80000080050000C00500818024004180240B5
:100FC80000690840431E9841C0B2704710B5114CE3
:100FD8001149236802000B4003432360802300204B
:100FE8009B009A420ED10D4B0D49186806235843B1
:100FF800FFF78CF88022431CD2006169080010407A
:10100800114200D110BD002B01D0013BF5E70320B0
:10101800F8E7C04600700040FFF9FFFF0400002019
:1010280040420F00F0B5040085B0002802D101202D
:1010380005B0F0BD0368DB0710D423689B075CD4B8
:1010480023681B0700D5C1E023685B0700D5F2E0E1
:10105800E369002B00D079E10020E9E73822AF4DA1
:10106800AB681340EA68102B09D1D3439B0708D11A
:101078002B689B03E1D56368002BDED1D7E7082BEB
:10108800F6D0802263685202934211D12A68134332
:101098002B60FFF74BFD80270600BF022B683B4201
:1010A800CBD1FFF743FD801B6428F7D90320BFE7A6
:1010B800A021C9028B4208D180232968DB020B4397
:1010C8002B602B681A432A60E3E72A6894490A4090
:1010D8002A602A6893490A402A60002BD9D1FFF771
:1010E80025FD80270600BF022B683B42A5D0FFF7ED
:1010F8001DFD801B6428F7D9D8E73822874DAB68D7
:101108001340EA68102B28D103210A40022A26D16D
:101118002A68520503D5E268002A00D187E7696882
:1011280062698148120201400A436A60002B0CD1AF
:101138002B687E4A7E491340226913432B602B6833
:101148007C4A9B045B0FDA400A607B4B1868FFF708
:10115800A5FC002800D173E769E7002BD8D0E36825
:10116800002B20D02B68714A802713402269FF008A
:1011780013432B6080232A685B0013432B60FFF71F
:10118800D5FC06002B683B4207D06A68636966494C
:101198001B020A4013436B6052E7FFF7C7FC801B32
:1011A8000228EFD982E72B68644A802713402B6016
:1011B800FFF7BCFC0600FF002B683B4200D13FE76D
:1011C800FFF7B4FC801B0228F6D96FE73822534D8D
:1011D800AB681340182B08D12B6E9B0700D433E75C
:1011E800A369002B00D02FE721E7A2690123002A79
:1011F80010D02A6E022713432B66FFF797FC0600D0
:101208002B6E3B4200D01FE7FFF790FC801B0228A3
:10121800F6D94BE72A6E02279A432A66FFF786FC1F
:1012280006002B6E3B4200D10EE7FFF77FFC801BC8
:101238000228F6D93AE73822384DAB681340202BFC
:1012480008D1EB6D9B0700D402E7A368002B00D000
:10125800FEE6ECE680220021EB6B5205009113427A
:1012680008D1EB6B1343EB63EB6B13400393039BC6
:10127800012300938027324E7F0033683B4215D00C
:10128800A368012B22D1EA6D1343EB65FFF74EFCEF
:1012980002270600EB6D3B4238D0009B012B00D0A3
:1012A800D6E6EB6B274A1340EB63D1E633683B4342
:1012B8003360FFF73BFC019033683B42E0D1FFF716
:1012C80035FC019BC01A0228F6D9EFE6EA6D052B1A
:1012D80005D1013B1343EB65EA6D0123D4E70121F6
:1012E8008A43EA65EA6D03318A43EA65002BCDD16A
:1012F800FFF71CFC02270600EB6D3B42CDD0FFF741
:1013080015FC114B801B9842F6D9CFE6FFF70EFC6F
:101318000D4B801B9842BDD9C8E6C046001002405C
:10132800FFFFFEFFFFFFFBFFFF80FFFFFFC7FFFF81
:10133800040000200024F4000C000020FFFEFFFF42
:1013480000700040FFFFFFEF8813000038213F4D79
:10135800AA680A40102A51D03D4A022B38D12B687E
:10136800802713402B60FFF7E1FB0600BF042B68C2
:101378003B4227D1616A236AEA680B4335498026D4
:101388000A401343E26AB6041343226B1343A26A6A
:1013980012021343EB6080232A685B0413432B601B
:1013A8008023EA685B051343EB60FFF7BFFB04008B
:1013B8002B68334200D04FE6FFF7B8FB001B02282A
:1013C800F6D973E6FFF7B2FB801B0228CFD96DE68A
:1013D8002B68802613402B60FFF7A8FB0400B60497
:1013E8002B68334204D1EB681B4A1340EB6033E6A9
:1013F800FFF79CFB001B0228F2D957E6012B00D10E
:1014080015E60322E868216A02408A4200D00EE607
:101418007022616A02408A4200D008E6FE21A26A70
:10142800C90101401202914200D000E6F822E16AA7
:10143800920302408A4200D0F9E5236B400F40072F
:10144800C01A431E9841C0B2F2E5C04600100240DF
:10145800FFFFFFFE8C80C11FFCFFFEEF382370B535
:101468001D4CA2681A4205D123681C489B045B0FD7
:10147800D84070BDA2681A40082A27D0A2681A402E
:10148800102A17D1E368E168DB43E5684906490F8C
:101498006F322D0A013115409B0709D11048FEF71C
:1014A80035FEE1686843490F0131FEF72FFEE0E79A
:1014B8000A48F4E7A2681A40202A09D0A268002046
:1014C8001340182BD5D1FA20C001D2E70448D0E741
:1014D80080200002CDE7C046001002400024F4003E
:1014E80000127A00F7B504000D00002801D1012090
:1014F800FEBD0727484E33683B408B422AD32268FB
:1015080093073BD4D20748D4072733683B40AB4204
:101518000AD93368BB432B433360FFF707FB0190BD
:1015280033683B40AB4268D123683C4D5B076CD4C1
:10153800FFF794FFAB683A491B051B0F9B005B58EC
:101548001F210B40D840374A374B10601868FFF707
:10155800A5FACDE73368BB430B433360FFF7E6FAE0
:10156800019033683B40AB42C9D0FFF7DFFA019BDB
:10157800C01A2E4B9842F4D90320B9E727495307DC
:1015880004D5E0238868DB0103438B608B68284817
:101598000340A06803438B60B4E760681F4F0328CB
:1015A80029D8FEF7A9FD20021C243B689B039ED581
:1015B8000722BB6893430343BB60FFF7B7FA019068
:1015C8003823BA681A406368DB009A429CD0FFF758
:1015D800ADFA019BC01A154B9842F1D9CCE73B688C
:1015E8009B01E5D483E73B685B05E1D47FE73B6E6D
:1015F8009B07DDD47BE7FB6DFAE7FFF797FA019BC2
:10160800C01A0A4B98428BD9B6E7AB68094A13400F
:10161800E2681343AB608BE70020024000100240F1
:1016280030280008040000200C0000208813000067
:10163800FFF0FFFFFF8FFFFF064B07499B68074A34
:101648005B045B0F9B005B581F2110680B40D84060
:101658007047C0460010024010280008040000200F
:10166800F0B50368050085B000209B0351D58022A2
:10167800484C5205E36B0090134208D1E36B1343C7
:10168800E363E36B13400393039B012300938027D9
:10169800414E7F0033683B433360FFF747FA0190C0
:1016A80033683B4227D0E26DC02311009B003B4EBC
:1016B80019401A4218D06B69994215D08022E36DFF
:1016C800E06D190052020243E265E26D3448314090
:1016D8000240E265E165DB0706D5FFF727FA070058
:1016E8000222E36D13424DD0E36D6A693340134320
:1016F8000020E36506E0FFF719FA019BC01A0228EB
:10170800CED90320009B012B03D1E36B254A13405C
:10171800E3632A68D30706D503241E494B6DA34308
:101728006C6823434B65930606D51A491E4C4B6DCE
:101738002340AC6823434B6553040FD515492C69E6
:101748004B6D9B009B0823434B658023DB059C4224
:1017580004D18023CC685B022343CB6012050FD5EC
:101768000C4A124C536DE96823400B4353658023A0
:10177800DB01994204D18023D1685B020B43D3601B
:1017880005B0F0BDFFF7D2F9094BC01B9842A7D9A5
:10179800B7E7C0460010024000700040FFFCFFFFA2
:1017A800FFFFFEFFFFFFFFEFFFCFFFFFFF3FFFFF42
:1017B8008813000070B50124036A026AA24302621A
:1017C8004468124A856915400A6815430222934302
:1017D8008A6813430E4A904205D00E4A904202D0BE
:1017E8000D4A90420BD108229343CA688E6913436D
:1017F80004229343094A22404C69344314434A68FB
:10180800446085614263036270BDC0468CFFFEFF81
:10181800002C01400044014000480140FFFCFFFF4C
:1018280070B5174A056A036A134003624268154B8C
:10183800C4691C400B681C43134B1D408B681B027A
:101848002B43124DA8420ED1114D1D40CB681B02EF
:101858002B43104D2B40104D8E6915404A69324379
:1018680012012A4305E00D4DA842F4D00C4DA842C0
:10187800F1D042604A68C461C263036270BDC04669
:10188800FFFEFFFF8CFFFEFFFFFDFFFF002C014066
:10189800FFF7FFFFFFFBFFFFFFCFFFFF0044014003
:1018A8000048014030B5124A046A036A114D1340DA
:1018B80003624368C2692A400D682D0215430E4A27
:1018C80014408A68120322430C4CA04205D00C4CE9
:1018D800A04202D00B4CA04204D10B4C1C404B69D7
:1018E8009B01234343604B68C5610364026230BDBA
:1018F800FFEFFFFFFF8CFFFEFFDFFFFF002C014023
:101908000044014000480140FFBFFFFF70B5066A70
:10191800104C036A104A234003624368456D154022
:101928000A6815430D4A16408A68120432430C4E61
:10193800B04205D00B4EB04202D00B4EB04203D19C
:101948001C404B691B02234343604B684565836514
:10195800026270BDFFFFFEFF8FFFFEFFFFFFFDFF6E
:10196800002C0140004401400048014030B5124AB3
:10197800046A036A114D134003624368426D2A40AA
:101988000D682D0215430E4A14408A681205224339
:101998000C4CA04205D00C4CA04202D00B4CA042EB
:1019A80004D10B4C1C404B699B02234343604B689A
:1019B8004565C365026230BDFFFFEFFFFF8FFFFE85
:1019C800FFFFDFFF002C01400044014000480140B8
:1019D800FFFFFBFF704710B5846A626A82420DD12F
:1019E80001232377D269002A02D122003E321370E4
:1019F8002000FEF743FD0023237710BDA36A83422E
:101A080009D102222277DB69002BF1D12300013AA8
:101A18003F331A70ECE7E36A834208D10422227745
:101A2800DB69002BE4D12300033A4033F1E7236B51
:101A38008342DDD108222277DB69002BD8D123002D
:101A4800073A4133E5E7704710B5846A636A834211
:101A580007D1012323772000FFF7F5FF0023237721
:101A680010BDA36A834201D10223F3E7E36A8342EC
:101A780001D10423EEE7236B8342ECD10823E9E785
:101A8800704710B5846A636A834205D10123220036
:101A980023773E32137008E0A36A83420BD10223F6
:101AA8002377230001223F331A702000FFF7E8FF55
:101AB8000023237710BDE26A0123824204D1042265
:101AC800227722004032E5E7226B824204D10822C5
:101AD800227722004132DDE722003D32DAE70000BA
:101AE80010B51B4C0368A0420AD01A4A904207D08E
:101AF800194A904209D1194A1A40CB6813430AE09F
:101B0800702293434A681343F5E7154A9042F2D08E
:101B1800144A9042EFD0802293434A6913430360EA
:101B28008B68C3620B688362A04205D00C4B984255
:101B380002D00C4B984201D10B6903630122426128
:101B48000369134202D003699343036110BDC04681
:101B5800002C01400004004000200040FFFCFFFF73
:101B6800004401400048014070B504000120002CE9
:101B780023D025003D352B78DAB2002B05D1230080
:101B88003C3320001A70FEF791FE02232B70206868
:101B9800211DFFF7A5FF2200012300204832137002
:101BA80047340A3A137053709370D370137153719A
:101BB8009371D371137223702B7070BD70B50400CC
:101BC8000120002C23D025003D352B78DAB2002BDC
:101BD80005D123003C3320001A70FFF7FBFE0223D7
:101BE8002B702068211DFFF77BFF220001230020B6
:101BF8004832137047340A3A137053709370D37095
:101C0800137153719371D371137223702B7070BD5C
:101C1800102270B5056A036A164C93430362426842
:101C2800836923400C6824021C4320239D438B684E
:101C38001B012B43104DA8420FD18025AB431E003A
:101C4800CB68403D1B013343AB430C4D8E691540B7
:101C58004A69324392002A4305E0094DA842F4D06C
:101C6800084DA842F1D042604A68846182630362E9
:101C780070BDC046FF8CFFFE002C0140FFF3FFFF44
:101C88000044014000480140F8B507003C37150002
:101C98003A7803000C000220012A0CD00138387071
:101CA8000C2D51D008D8042D2DD0082D3CD0002D56
:101CB80017D000233B70F8BD102D58D0142DF8D143
:101CC8001D682800FFF752FE80236A6D1B0113432D
:101CD8006B656B6D2E4A13406B6523696A6D1B0239
:101CE80053E01D682800FFF765FD0823AA69134320
:101CF8000422AB61AB699343AB61AB6922691343BF
:101D0800AB610020D5E71D682800FFF781FF80231D
:101D1800AA691B011343AB61AB691D4A1340AB6150
:101D28002369AA691B02EAE71E683000FFF778FDFD
:101D38000422F3691D43F561F3699343F361F36981
:101D480022691343F361DCE71D682800FFF7AAFD49
:101D58008023EA691B011343EB61EB690C4A1340CA
:101D6800EB612369EA691B021343EB61C9E71D684C
:101D78002800FFF7CBFD08236A6D134304226B6527
:101D88006B6D93436B656B6D226913436B65B8E7A5
:101D9800FFFBFFFF30B58468034D0A431B022C404C
:101DA80013432343836030BDFF00FFFFF8B50500F0
:101DB80002223C352C7803001000012C1BD01E0099
:101DC80001383D36287032701C68414AA3681340B8
:101DD800A3600B68602B4ED02DD8402B62D013D84F
:101DE800202B0BD008D810221900914306D00123CC
:101DF800337000232B70F8BD302BF8D1A268354919
:101E08000A401343072228E0502BF0D14A68CB68D8
:101E1800216A276A1B0187432762F027A069B84314
:101E280003430A2081430A43A3612262294BA26823
:101E38001A40572311E08022520193420FD080228A
:101E4800920193420DD0702BD1D1CB684A68200003
:101E58008968FFF79FFF7723A2681343A3600020D8
:101E6800C5E7CB684A6820008968FFF793FF80239D
:101E7800A268DB01F1E710274B68CA68216A206A6B
:101E88001203B8432062A069134F1B013840024374
:101E9800A02081430B43A2612362A2680D4B1A4024
:101EA8006723DAE74A68CB68216A276A1B018743F8
:101EB8002762F027A069B84303430A2081430A43F5
:101EC800A3612262034BA2681A404723C5E7C046B4
:101ED8008800CEFF8FFFCFFFFF0FFFFF1F2310B536
:101EE800012419408C408A40036AA3430362036AB1
:101EF8001A43026210BD000070B50E000500110003
:101F0800082E1CD006D8002E0BD0042E14D02A0080
:101F1800433208E00C2E15D0102EF8D102004232C0
:101F280001E002003E3214780220023C6242544131
:101F3800E4B2002C09D070BD02003F32F3E7020082
:101F48004032F0E702004132EDE7082E24D006D8EF
:101F5800002E0BD0042E1CD02A00433208E00C2E91
:101F680025D0102EF8D12A00423217E02A003E323E
:101F78001278012A19D1002917D0002B15D0022276
:101F8800082E65D016D8002E1BD0042E4BD0433512
:101F980015E02A003F32EBE72A0040321278013A76
:101FA80050424241D2B2002AE5D10120C3E72A00BB
:101FB8004132F3E70C2E60D0102EE8D142352A705A
:101FC800F3E728003E300270686A3D4AC2623D4A23
:101FD80002633D4A42632A683432FEF7A3FE0028B2
:101FE800E3D180232C689B00E2681343310001226F
:101FF8002000E360FFF772FF344A944205D0344B67
:102008009C4202D0334B9C424CD18023616C1B0212
:102018000B436364944248D1A3682F4A1340062BAC
:1020280048D1002087E728003F300270A86A244A78
:10203800C262244A0263244A42632A683832FEF79D
:1020480071FE0028B1D180232C68DB00E268CCE760
:10205800280040300270E86A194AC262194A0263CD
:10206800194A42632A683C32FEF75CFE00289CD17C
:1020780080232C681B01E268B7E728004130027012
:10208800286B0F4AC2620F4A02630F4A42632A68EA
:102098004032FEF747FE002887D180232C685B0179
:1020A800E268A2E70D4B9C42B6D001232268134395
:1020B8002360B6E7802252029342F6D1B1E7C046C8
:1020C800DF190008511A00088B1A0008002C01407B
:1020D800004401400048014007000100000400409E
:1020E80010B5FFF709FF10BDF0B5040002223C341B
:1020F800257803001000012D1FD01D003D352A70E2
:102108001A680E4E53689068B24203D10C4F3B4098
:102118004F683B437027BB430F683B435360B24251
:1021280002D0084B9A4204D1802398438B68184305
:102138009060012300202B702070F0BD002C01401E
:10214800FFFF0FFF0004004030B5EFF310840122B9
:1021580082F310880168134D0B682B400B6084F3E1
:102168001088EFF3108182F3108802680E4C936890
:102178002340936081F31088C36E012B0AD1EFF3DB
:10218800108183F31088102402681368A343136036
:1021980081F31088030020228C331A600023C36661
:1021A800436730BDDFFEFFFFFEFFFFEF70B50400A1
:1021B8002569A168036829436569C26929431868C4
:1021C800494D114328400143196059684748256A19
:1021D8000140E06801435960A16998682943444D6A
:1021E800284001430F209960D96A8143606A0143FE
:1021F800D96240498B4215D103213F4B5B6D0B409F
:10220800013B022B60D83D49C85C80231B029A42DF
:102218002FD1082856D8FDF76FFF5B550E550B5583
:1022280055550F0036495B18591E8B411801ECE7CC
:10223800FFF714F94EE0334A616A334B4900100046
:10224800C95AFDF763FF656840006B08C01829008C
:10225800FDF75CFF02002D4B103A9A4232D80F234B
:10226800020000079A4393B2400F22680343D360E9
:1022780032E0082826D8FDF73FFF1A2505251F2537
:10228800252522001F48626A1F4B5200D15AFDF7CC
:102298003DFF65686B08C0182900FDF737FF02008D
:1022A8001A4B103A9A420DD82368D86014E0FFF709
:1022B800C3F9002810D0E6E7FFF7D0F8F9E7802047
:1022C8000002E0E7012008E080231B029A42EED1D9
:1022D800FFF7B2F9021EAFD100200D4BA366002311
:1022E8006367A36770BDC046F369FFCFFFCFFFFFE9
:1022F800FFF4FF1100380140001002407028000868
:1023080000BCFFBF0024F40074280008EFFF0000A1
:1023180001000100836A30B51A0706D50168284C08
:102328004A682240846B22434A60DA0706D501686E
:10233800244C4A682240C46A22434A609A0706D558
:102348000168214C4A682240046B22434A605A07BC
:1023580006D501681D4C4A682240446B22434A60F6
:10236800DA0606D501681A4C8A682240C46B2243F3
:102378008A609A0606D50168164C8A682240046C61
:1023880022438A605A0610D50168134D4A68446C86
:102398002A4022434A6080225203944205D14A6867
:1023A8000E4C2240846C22434A601B0606D5026804
:1023B8000B4953680B40C16C0B43536030BDC0469A
:1023C800FF7FFFFFFFFFFDFFFFFFFEFFFFFFFBFF9C
:1023D800FFEFFFFFFFDFFFFFFFFFEFFFFFFF9FFFA5
:1023E800FFFFF7FFF7B504000D0017000093226800
:1023F800D3692B405B1B59424B41BB4201D00020A3
:1024080026E0089B0133F3D0FEF790FB009BC01A2F
:10241800089B98422DD8002B2BD023681A685207A6
:10242800E5D52A004021403A8A43E0D0DA690826F7
:1024380011003140019132420BD020001E62FFF79B
:1024480083FE230090331E60002301208434237010
:10245800FEBD8022D96912011142C8D01A6220003B
:10246800FFF772FE2300202290331A60019B843408
:1024780023700320ECE7F0B51700020087B088321C
:102488000593136804000D000220202B39D1013870
:10249800002936D0002F34D08023A1685B019942EF
:1024A80004D12369002B01D105422AD1230000263B
:1024B80090331E6021231360FEF738FB230054334A
:1024C8001F80023303931F808023A26804905B015E
:1024D8009A4204D12369B34201D12E001D00230082
:1024E80056331B889AB2002B0DD1059B2000009310
:1024F8004021049BFFF776FF2023883423600028BF
:102508000ED107B0F0BD059B00220093802120006A
:10251800049BFFF767FF002804D02023883423603A
:102528000320EEE72268002D0BD133880236DB0545
:10253800DB0D9362039B039A1B88013B9BB21380BC
:10254800CDE72B7801359362F4E70000030073B5FB
:102558000026040090331E60FEF7E8FA23680500A1
:102568001B681B071FD58021284B32000093890365
:1025780003002000FFF736FFB04214D0EFF31081BC
:10258800012383F310888020226813688343136033
:1025980081F310882300202288331A600320002347
:1025A8008434237076BD260023688C361B685B074D
:1025B80023D58021154B0022009320002B00C9034E
:1025C800FFF710FF002818D0EFF31080012282F3E4
:1025D800108821680E4D0B682B400B6080F3108823
:1025E800EFF3108082F3108821688B6893438B6027
:1025F80080F3108820233360D0E7230020220020B6
:1026080088331A603260E0662067C8E7FFFFFF0181
:10261800DFFEFFFF70B5041E01D1012070BD05006B
:1026280088352B68002B04D1020084321370FEF722
:10263800B1F92423012122682B6013688B431360AE
:10264800A36A002B02D02000FFF764FE2000FFF7EA
:10265800ADFD0128E1D0236807495A6820000A40E7
:102668002A215A609A688A439A60012219680A43A3
:102678001A60FFF76BFFD1E7FFB7FFFFF7B5070059
:10268800436E04006A37002B04D101203880683477
:102698002080F7BD03680B4E9A689B680A4D5B0F54
:1026A800F05CE95CC0000192FDF7BAFD019B38803F
:1026B8001B015B0FF05CE95CC000FDF7B1FD80B267
:1026C800E5E7C046942800088C28000870B5040087
:1026D8008434227803000220012A11D01D0024220C
:1026E800012688352A601A6811681068B04310609E
:1026F8000448014000205866202311602B60207098
:1027080070BDC046FFFFFFDFF8B5050084350B003C
:1027180029780222012915D006000121046888368B
:1027280022323260276822688A432260A168C90081
:10273800C9081943A160FFF7A1FF202300222760E1
:1027480033602A701000F8BDF8B5050084350A001A
:1027580029780223012915D006000121046888364A
:1027680022333360276823688B432360A168064BB4
:1027780019401143A160FFF781FF202327603360D0
:1027880000232B701800F8BDFFFFFFF1030082182B
:10279800934200D1704719700133F9E770B50026EC
:1027A8000C4C0D4D641BA410A64209D1002600F064
:1027B80019F80A4C0A4D641BA410A64205D170BD35
:1027C800B300EB5898470136EEE7B300EB5898474B
:1027D8000136F2E79C2800089C280008A028000879
:1027E8009C280008F8B5C046F8BC08BC9E4670474F
:0C27F800F8B5C046F8BC08BC9E4670470F
:102804004E6F20546F7563680A00000000000000DA
:1028140000000000000000000000000001000000B3
:10282400020000000300000004000000000000009B
:102834000000000000000000000000000000000094
:102844000000000000000000000000000100000083
:102854000200000003000000040000000600000065
:10286400070000000800000009000000040208003E
:10287400010002000400060008000A000C00100019
:102884002000400080000001080402040801010146
:0828940001010103070100002E
:04289C00E10000084F
:0428A000B900000873
:1028A400960000000024F400010000000400000071
:0400000508000A5194
:00000001FF
